{
  "_format": "hh-sol-artifact-1",
  "contractName": "Counter",
  "sourceName": "contracts/Counter.sol",
  "abi": [
    {
      "inputs": [],
      "stateMutability": "nonpayable",
      "type": "constructor"
    },
    {
      "inputs": [],
      "name": "decrement",
      "outputs": [],
      "stateMutability": "nonpayable",
      "type": "function"
    },
    {
      "inputs": [],
      "name": "getCount",
      "outputs": [
        {
          "internalType": "uint256",
          "name": "",
          "type": "uint256"
        }
      ],
      "stateMutability": "view",
      "type": "function"
    },
    {
      "inputs": [],
      "name": "increment",
      "outputs": [],
      "stateMutability": "nonpayable",
      "type": "function"
    }
  ],
  "bytecode": "0x608060405234801561001057600080fd5b5060008081905550610280806100276000396000f3fe608060405234801561001057600080fd5b50600436106100415760003560e01c80632baeceb714610046578063a87d942c14610050578063d09de08a1461006e575b600080fd5b61004e610078565b005b6100586100d5565b6040516100659190610110565b60405180910390f35b6100766100de565b005b60008054116100bc576040517f08c379a00000000000000000000000000000000000000000000000000000000081526004016100b390610188565b60405180910390fd5b6000808154809291906100ce906101d7565b9190505550565b60008054905090565b6000808154809291906100f090610201565b9190505550565b6000819050919050565b61010a816100f7565b82525050565b60006020820190506101256000830184610101565b92915050565b600082825260208201905092915050565b7f436f756e7465722063616e6e6f74206265206e65676174697665000000000000600082015250565b6000610172601a8361012b565b915061017d8261013c565b602082019050919050565b600060208201905081810360008301526101a181610165565b9050919050565b7f4e487b7100000000000000000000000000000000000000000000000000000000600052601160045260246000fd5b60006101e2826100f7565b915060008214156101f6576101f56101a8565b5b600182039050919050565b600061020c826100f7565b91507fffffffffffffffffffffffffffffffffffffffffffffffffffffffffffffffff82141561023f5761023e6101a8565b5b60018201905091905056fea2646970667358221220b3b11547be375c6f92fbb6f530701c2fbae845179186df6c3d07e953ae5756ba64736f6c63430008090033",
  "linkReferences": {},
  "deployedLinkReferences": {}
}