{"contracts/Counter.sol":{"Counter":{"abi":[{"inputs":[],"stateMutability":"nonpayable","type":"constructor"},{"inputs":[],"name":"decrement","outputs":[],"stateMutability":"nonpayable","type":"function"},{"inputs":[],"name":"getCount","outputs":[{"internalType":"uint256","name":"","type":"uint256"}],"stateMutability":"view","type":"function"},{"inputs":[],"name":"increment","outputs":[],"stateMutability":"nonpayable","type":"function"}],"evm":{"bytecode":{"linkReferences":{},"object":"608060405234801561001057600080fd5b5060008081905550610280806100276000396000f3fe608060405234801561001057600080fd5b50600436106100415760003560e01c80632baeceb714610046578063a87d942c14610050578063d09de08a1461006e575b600080fd5b61004e610078565b005b6100586100d5565b6040516100659190610110565b60405180910390f35b6100766100de565b005b60008054116100bc576040517f08c379a00000000000000000000000000000000000000000000000000000000081526004016100b390610188565b60405180910390fd5b6000808154809291906100ce906101d7565b9190505550565b60008054905090565b6000808154809291906100f090610201565b9190505550565b6000819050919050565b61010a816100f7565b82525050565b60006020820190506101256000830184610101565b92915050565b600082825260208201905092915050565b7f436f756e7465722063616e6e6f74206265206e65676174697665000000000000600082015250565b6000610172601a8361012b565b915061017d8261013c565b602082019050919050565b600060208201905081810360008301526101a181610165565b9050919050565b7f4e487b7100000000000000000000000000000000000000000000000000000000600052601160045260246000fd5b60006101e2826100f7565b915060008214156101f6576101f56101a8565b5b600182039050919050565b600061020c826100f7565b91507fffffffffffffffffffffffffffffffffffffffffffffffffffffffffffffffff82141561023f5761023e6101a8565b5b60018201905091905056fea2646970667358221220b3b11547be375c6f92fbb6f530701c2fbae845179186df6c3d07e953ae5756ba64736f6c63430008090033","opcodes":"PUSH1 0x80 PUSH1 0x40 MSTORE CALLVALUE DUP1 ISZERO PUSH2 0x10 JUMPI PUSH1 0x0 DUP1 REVERT JUMPDEST POP PUSH1 0x0 DUP1 DUP2 SWAP1 SSTORE POP PUSH2 0x280 DUP1 PUSH2 0x27 PUSH1 0x0 CODECOPY PUSH1 0x0 RETURN INVALID PUSH1 0x80 PUSH1 0x40 MSTORE CALLVALUE DUP1 ISZERO PUSH2 0x10 JUMPI PUSH1 0x0 DUP1 REVERT JUMPDEST POP PUSH1 0x4 CALLDATASIZE LT PUSH2 0x41 JUMPI PUSH1 0x0 CALLDATALOAD PUSH1 0xE0 SHR DUP1 PUSH4 0x2BAECEB7 EQ PUSH2 0x46 JUMPI DUP1 PUSH4 0xA87D942C EQ PUSH2 0x50 JUMPI DUP1 PUSH4 0xD09DE08A EQ PUSH2 0x6E JUMPI JUMPDEST PUSH1 0x0 DUP1 REVERT JUMPDEST PUSH2 0x4E PUSH2 0x78 JUMP JUMPDEST STOP JUMPDEST PUSH2 0x58 PUSH2 0xD5 JUMP JUMPDEST PUSH1 0x40 MLOAD PUSH2 0x65 SWAP2 SWAP1 PUSH2 0x110 JUMP JUMPDEST PUSH1 0x40 MLOAD DUP1 SWAP2 SUB SWAP1 RETURN JUMPDEST PUSH2 0x76 PUSH2 0xDE JUMP JUMPDEST STOP JUMPDEST PUSH1 0x0 DUP1 SLOAD GT PUSH2 0xBC JUMPI PUSH1 0x40 MLOAD PUSH32 0x8C379A000000000000000000000000000000000000000000000000000000000 DUP2 MSTORE PUSH1 0x4 ADD PUSH2 0xB3 SWAP1 PUSH2 0x188 JUMP JUMPDEST PUSH1 0x40 MLOAD DUP1 SWAP2 SUB SWAP1 REVERT JUMPDEST PUSH1 0x0 DUP1 DUP2 SLOAD DUP1 SWAP3 SWAP2 SWAP1 PUSH2 0xCE SWAP1 PUSH2 0x1D7 JUMP JUMPDEST SWAP2 SWAP1 POP SSTORE POP JUMP JUMPDEST PUSH1 0x0 DUP1 SLOAD SWAP1 POP SWAP1 JUMP JUMPDEST PUSH1 0x0 DUP1 DUP2 SLOAD DUP1 SWAP3 SWAP2 SWAP1 PUSH2 0xF0 SWAP1 PUSH2 0x201 JUMP JUMPDEST SWAP2 SWAP1 POP SSTORE POP JUMP JUMPDEST PUSH1 0x0 DUP2 SWAP1 POP SWAP2 SWAP1 POP JUMP JUMPDEST PUSH2 0x10A DUP2 PUSH2 0xF7 JUMP JUMPDEST DUP3 MSTORE POP POP JUMP JUMPDEST PUSH1 0x0 PUSH1 0x20 DUP3 ADD SWAP1 POP PUSH2 0x125 PUSH1 0x0 DUP4 ADD DUP5 PUSH2 0x101 JUMP JUMPDEST SWAP3 SWAP2 POP POP JUMP JUMPDEST PUSH1 0x0 DUP3 DUP3 MSTORE PUSH1 0x20 DUP3 ADD SWAP1 POP SWAP3 SWAP2 POP POP JUMP JUMPDEST PUSH32 0x436F756E7465722063616E6E6F74206265206E65676174697665000000000000 PUSH1 0x0 DUP3 ADD MSTORE POP JUMP JUMPDEST PUSH1 0x0 PUSH2 0x172 PUSH1 0x1A DUP4 PUSH2 0x12B JUMP JUMPDEST SWAP2 POP PUSH2 0x17D DUP3 PUSH2 0x13C JUMP JUMPDEST PUSH1 0x20 DUP3 ADD SWAP1 POP SWAP2 SWAP1 POP JUMP JUMPDEST PUSH1 0x0 PUSH1 0x20 DUP3 ADD SWAP1 POP DUP2 DUP2 SUB PUSH1 0x0 DUP4 ADD MSTORE PUSH2 0x1A1 DUP2 PUSH2 0x165 JUMP JUMPDEST SWAP1 POP SWAP2 SWAP1 POP JUMP JUMPDEST PUSH32 0x4E487B7100000000000000000000000000000000000000000000000000000000 PUSH1 0x0 MSTORE PUSH1 0x11 PUSH1 0x4 MSTORE PUSH1 0x24 PUSH1 0x0 REVERT JUMPDEST PUSH1 0x0 PUSH2 0x1E2 DUP3 PUSH2 0xF7 JUMP JUMPDEST SWAP2 POP PUSH1 0x0 DUP3 EQ ISZERO PUSH2 0x1F6 JUMPI PUSH2 0x1F5 PUSH2 0x1A8 JUMP JUMPDEST JUMPDEST PUSH1 0x1 DUP3 SUB SWAP1 POP SWAP2 SWAP1 POP JUMP JUMPDEST PUSH1 0x0 PUSH2 0x20C DUP3 PUSH2 0xF7 JUMP JUMPDEST SWAP2 POP PUSH32 0xFFFFFFFFFFFFFFFFFFFFFFFFFFFFFFFFFFFFFFFFFFFFFFFFFFFFFFFFFFFFFFFF DUP3 EQ ISZERO PUSH2 0x23F JUMPI PUSH2 0x23E PUSH2 0x1A8 JUMP JUMPDEST JUMPDEST PUSH1 0x1 DUP3 ADD SWAP1 POP SWAP2 SWAP1 POP JUMP INVALID LOG2 PUSH5 0x6970667358 0x22 SLT KECCAK256 0xB3 0xB1 ISZERO SELFBALANCE 0xBE CALLDATACOPY 0x5C PUSH16 0x92FBB6F530701C2FBAE845179186DF6C RETURNDATASIZE SMOD 0xE9 MSTORE8 0xAE JUMPI JUMP 0xBA PUSH5 0x736F6C6343 STOP ADDMOD MULMOD STOP CALLER "},"methodIdentifiers":{"decrement()":"2baeceb7","getCount()":"a87d942c","increment()":"d09de08a"}}}}}